:020000040800F2
:1000000020080020A9230008FD240008FF24000880
:1000100003250008072500080B2500080000000044
:100020000000000000000000000000000F25000894
:100030001125000800000000132500081525000800
:10004000C3230008C3230008C3230008C3230008F8
:10005000C3230008C3230008C3230008C3230008E8
:10006000C3230008C3230008C3230008C3230008D8
:10007000C3230008C3230008C3230008C3230008C8
:10008000C3230008C3230008C3230008C3230008B8
:10009000EB2F0008C3230008C3230008C323000874
:1000A000C3230008C3230008C3230008C323000898
:1000B000C3230008C3230008C3230008C323000888
:1000C000C3230008C3230008C3230008C323000878
:1000D000C3230008F1260008C3230008692800088C
:1000E000C3230008C3230008C323000800F002F85C
:1000F00000F090F80AA090E8000C82448344AAF132
:100100000107DA4501D100F085F8AFF2090EBAE82F
:100110000F0013F0010F18BFFB1A43F0010318473B
:10012000D4510000F4510000103A24BF78C878C1BF
:10013000FAD8520724BF30C830C144BF04680C60ED
:10014000704700000023002400250026103A28BF35
:1001500078C1FBD8520728BF30C148BF0B60704739
:100160006E2903F07181702903F0E382662904F09F
:100170001383652904F01083672904F00D83612936
:10018000AFF3008003681B0A28BF41F08001692992
:1001900003F01E81642903F01B81752903F0188187
:1001A0006F2903F07082782903F0AF82E92903F008
:1001B0000B82E42903F00882F52903F00582EF2978
:1001C00003F06D82F82903F0AE820368DB0928BFD3
:1001D00041F08001632903F07A81732903F07F8164
:1001E000E32903F06885F32903F06D85002070474B
:1001F0001FB503F0BDFD04000020002104F0B6FA95
:10020000401C60600020002104F09AFAE0601FBDED
:1002100010B510BD03F07FFD1146FFF7E9FF02F0B6
:10022000E3F803F05BFE03B4FFF7F2FF03BC02F058
:10023000DBF900000CB50020019000906C480068CC
:1002400040F480306A49086000BF6948006800F4E3
:10025000003000900198401C0190009818B9019856
:10026000B0F5A06FF1D16248006800F4003010B121
:100270000120009001E0002000900098012843D167
:100280005C48006840F010005A4908600846006861
:1002900020F0030008600846006840F00200086093
:1002A00053484068524948600846406848600846DC
:1002B000406840F4806048600846406820F47C1044
:1002C00048600846406840F4E81048600846006806
:1002D00040F08070086000BF4548006800F0007082
:1002E0000028F9D04248406820F0030040494860A7
:1002F0000846406840F00200486000BF3C48406843
:1003000000F00C000828F9D10CBD10B5FFF792FFE2
:1003100010BD10B53648006840F00100344908604F
:10032000084640683449084031494860084600683A
:10033000324908402E4908600846006820F48020B1
:1003400008600846406820F4FE0048604FF41F0033
:100350008860FFF7DAFF4FF000602949086010BDA0
:1003600010B5002100200022214B5B6803F00C0136
:1003700021B1042906D0082928D107E0214B224CBD
:10038000236027E01F4B204C236023E0184B5B6861
:1003900003F47010164B5B6803F48032022303EB06
:1003A000904022B9194B4343174C23600DE0104B8A
:1003B0005B6803F4003323B1144B4343124C2360B6
:1003C00003E0104B4343104C236003E00D4B0E4CF5
:1003D000236000BF00BF064B5B68C3F303130C4CE4
:1003E000E15C094B1B68CB40074C236010BD00004B
:1003F00000100240002002400000FFF8FFFFF6FE60
:1004000008ED00E000127A000000002000093D0025
:100410000400002031490143314A1160704770B532
:10042000002100230F22C47804B32D4C246804F467
:10043000E064C4F5E064210AC1F10403CA404478D1
:1004400004FA03F18478144021430901254C06780D
:10045000A155047804F01F050124AC4005786D1106
:10046000AD0005F1E025C5F8004109E0047804F08D
:100470001F050124AC401C4D0678761145F8264036
:1004800070BD1A4A0A400243154B1B1F1A60704781
:1004900039B1134A121D12680243114B1B1D1A6019
:1004A00006E00F4A121D126882430D4B1B1D1A6095
:1004B0007047042808D14FF0E021096941F0040198
:1004C0004FF0E022116107E04FF0E021096921F0CF
:1004D00004014FF0E0221161704700000000FA05AE
:1004E0000CED00E000E400E080E100E080FFFF1F91
:1004F00010B50446CC48844208D10121042000F004
:100500002DFB0021042000F029FB46E0C74884426F
:1005100008D10121082000F021FB0021082000F073
:100520001DFB3AE0C248844208D10121102000F0AE
:1005300015FB0021102000F011FB2EE0BD48844285
:1005400008D10121202000F009FB0021202000F02B
:1005500005FB22E0B848844208D10121402000F088
:10056000FDFA0021402000F0F9FA16E0B348844279
:1005700008D10121802000F0F1FA0021802000F054
:10058000EDFA0AE0AE48844207D10121801500F05F
:10059000E5FA0021A01500F0E1FA10BD10B5012127
:1005A000084600F0DBFA0021012000F0D7FA10BD68
:1005B0002DE9F041024600250026002000230024FA
:1005C000002791F803C00CF00F0591F803C00CF060
:1005D000100CBCF1000F03D091F802C04CEA0505E5
:1005E00091F800C0BCF1000F31D0146800202BE05E
:1005F0004FF0010C0CFA00F3B1F800C00CEA03064E
:100600009E4220D183004FF00F0C0CFA03F7BC433D
:1006100005FA03FC4CEA040491F803C0BCF1280F6E
:1006200006D14FF0010C0CFA00FCC2F814C00AE02D
:1006300091F803C0BCF1480F05D14FF0010C0CFA42
:1006400000FCC2F810C0401C0828D1D31460B1F8D7
:1006500000C0BCF1FF0F34DD546800202EE000F133
:10066000080C4FF0010808FA0CF3B1F800C00CEACE
:1006700003069E4221D183004FF00F0C0CFA03F7C2
:10068000BC4305FA03FC4CEA040491F803C0BCF136
:10069000280F05D100F1080C08FA0CF8C2F81480F4
:1006A00091F803C0BCF1480F07D100F1080C4FF0DE
:1006B000010808FA0CF8C2F81080401C0828CED3B4
:1006C0005460BDE8F0814FF6FF7101800221817016
:1006D0000421C17070470246002093680B400BB1A3
:1006E000012000E0002070470146886880B2704712
:1006F00002460020D3680B400BB1012000E000202F
:1007000070470146C86880B2704701617047416117
:1007100070470AB1016100E041617047C1607047F4
:100720004FF480320A438261816182618269826909
:10073000704702460020434B18684FF680731840FC
:1007400040EA021008433F4B186070473E49C861B9
:100750007047F0B50A46002300240021002500F070
:100760000046B6F1004F02D1364EF16901E0354E38
:100770007168C0F3034583B200F44016B6F5401F1C
:1007800008D121F070612F4E766826F070662D4FEB
:100790007E6012E000F48016B6F5801F06D10326B5
:1007A00006FA05F4A14341F0706106E0460D3601FA
:1007B00003FA06F6B14341F0706122B1460D3601ED
:1007C00003FA06F6314300F00046B6F1004F02D1BD
:1007D0001C4EF16101E01B4E7160F0BD30B500228E
:1007E0008B071C0F0F2303FA04F2164B08338C10EF
:1007F00053F824309343134C08348D1044F82530BB
:1008000023468C1053F824308C07240F00FA04F48C
:1008100023430C4C08348D1044F8253030BD0A4970
:10082000DC3108607047000000080140000C014006
:10083000001001400014014000180140001C01405C
:10084000002001400000014000002042DF48006815
:1008500040F00100DD49086008464068DC49084076
:10086000DA49486008460068DA490840D749086014
:100870000846006820F4802008600846406820F49C
:10088000FE0048604FF41F0088607047CF49096838
:1008900021F48031CD4A11601146096821F480218C
:1008A0001160B0F5803F03D0B0F5802F0ED106E087
:1008B000C649096841F48031C44A116007E0C34960
:1008C000096841F4A021C14A116000E000BF00BFE7
:1008D000704710B501460022002300204A11012A6A
:1008E00002D1BA4C236806E0022A02D1B74C236A2F
:1008F00001E0B64C636A01F01F02012494401C40E1
:100900000CB1012000E0002010BD38B5002000909F
:100910000024002500BF3120FFF7DBFF05460098CB
:10092000401C00900098B0F5A06F01D0002DF2D0CF
:100930003120FFF7CEFF08B1012400E0002420465B
:1009400038BD01460020A14A106820F0F80040EAB6
:10095000C10010607047A04908607047024600203F
:100960009A4B586820F47C1042EA01031843974BD5
:100970005860704798490866704701460020934ABE
:10098000506820F003000843506070478F4840686B
:1009900000F00C007047014600208C4A506820F09F
:1009A000F00008435060704701460020874A5068B5
:1009B00020F4E06008435060704701460020834AFD
:1009C000506820F4605040EAC1005060704729B17F
:1009D0007E4A527A02437D4B5A7204E07B4A527A35
:1009E00082437A4B5A7270477B49D831086070470E
:1009F00001460020754A506820F44040084350608A
:100A000070470021714A20321170704A82F820101C
:100A1000012802D004280AD104E001216B4A2032C7
:100A2000117005E00521694A2032117000E000BF15
:100A300000BF70476949086070476449096A01430B
:100A4000624A11627047654944390860704730B5A1
:100A500000210022002400235C4D6D6805F00C018C
:100A600021B1042905D0082923D105E05C4D05609A
:100A700022E05B4D05601FE0544D6D6805F4701277
:100A8000524D6D6805F48034022505EB92421CB985
:100A9000544D554305600BE04C4D6D6805F4003531
:100AA0001DB1504D5543056002E04D4D5543056065
:100AB00002E04B4D056000BF00BF444D6D6805F07E
:100AC000F0010909484D6B5C0568DD4045603F4D0C
:100AD0006D6805F4E061090A434D6B5C4568DD40D3
:100AE00085603A4D6D6805F46051C90A3E4D6B5CF6
:100AF0004568DD40C560354D6D6805F44041890BA2
:100B00003A4D6B5CC568B5FBF3F5056130BD29B1A5
:100B10002E4A526902432D4B5A6104E02B4A526916
:100B200082432A4B5A61704729B1284A926902438D
:100B3000264B9A6104E0254A92698243234B9A61CD
:100B4000704729B1214AD2690243204BDA6104E09F
:100B50001E4AD26982431D4BDA61704729B11B4A94
:100B6000D2680243194BDA6004E0184AD268824323
:100B7000164BDA60704729B1144A12690243134BCD
:100B80001A6104E0114A12698243104B1A617047DE
:100B900012494039086070470F49C86470470B49D3
:100BA000C87170470948406A40F080700749486240
:100BB000704701460020054A92680A400AB10120A8
:100BC00000E0002070470149887270470010024021
:100BD0000000FFF8FFFFF6FE0000424280044242A0
:100BE00000127A0000093D001400002024000020BB
:100BF00010B50446FB48844209D101218803FFF760
:100C0000ADFF00214FF48040FFF7A8FF32E0F64827
:100C1000844209D101214804FFF7ADFF00214FF4C0
:100C20000030FFF7A8FF25E0F048844209D10121F8
:100C30008804FFF7A0FF00214FF48020FFF79BFFFF
:100C400018E0EB48844209D10121C804FFF793FF63
:100C500000214FF40020FFF78EFF0BE0E5488442AF
:100C600008D101210805FFF786FF00214FF480100D
:100C7000FFF781FF10BD2DE9F04786B005460E460F
:100C80000024A24600BFA1460027B08900B100BFE2
:100C90002F462C8A4CF6FF700440F08804432C82C7
:100CA000AC894EF6F3100440B0883189084371894D
:100CB00008430443AC81AC8A4FF6FF400440B0893E
:100CC0000443AC8201A8FFF7C2FEC648874202D1A6
:100CD000DDF810A001E0DDF80CA0A88900F40040C8
:100CE00040B10AEBCA0000EB0A1031684900B0FBC2
:100CF000F1F807E00AEBCA0000EB0A10316889003E
:100D0000B0FBF1F86420B8FBF0F004012009642185
:100D100001FB1089A88900F4004040B1322000EBAB
:100D2000C900B0FBF1F000F00700044308E03220F6
:100D300000EB09106421B0FBF1F000F00F00044358
:100D40002C8106B0BDE8F0874FF4165101600021F8
:100D50008180C18001810C21418100218181704706
:100D600010B502460020108A4FF2FF0318400B888E
:100D70004C8823438C882343CC8823431843108218
:100D800010BD0021018041808180C180704721B168
:100D9000828942F40052828104E082894DF6FF7319
:100DA0001A4082817047F0B50346002400260025D2
:100DB000002040F66A17B94200D100BF1846C1F3BF
:100DC000421401F01F06012707FA06F5012C01D194
:100DD0000C3004E0022C01D1103000E014301AB1C4
:100DE00007682F43076002E00768AF430760F0BD64
:100DF0001AB1838A0B43838202E0838A8B43838206
:100E00007047028A4FF6F0731A400282028A0A4340
:100E10000282704782894FF2FF731A408281828971
:100E20000A438281704721B1828942F002028281A5
:100E300004E082894FF6FD731A4082817047028A6E
:100E40004FF6DF731A400282028A0A430282704719
:100E500021B1028A42F48042028204E0028A4BF607
:100E6000FF731A4002827047C1F308028280704704
:100E700001468888C0F308007047818941F001016C
:100E800081817047028BD2B20283028B42EA012237
:100E900002837047028B02F47F420283028B0A4373
:100EA0000283704721B1828A42F02002828204E0EC
:100EB000828A4FF6DF731A408282704721B1828A9C
:100EC00042F01002828204E0828A4FF6EF731A40E9
:100ED0008282704721B1828A42F00802828204E055
:100EE000828A4FF6F7731A408282704721B1828955
:100EF00042F40042828103E08289C2F30E028281C1
:100F0000704721B1828A42F40062828204E0828AC0
:100F10004FF2FF731A4082827047828A4FF6FB734A
:100F20001A408282828A0A438282704721B1828A71
:100F300042F00202828204E0828A4FF6FD731A4078
:100F40008282704702460020B1F5007F00D100BFC9
:100F500013880B400BB1012000E00020704701F422
:100F60000072B2F5007F00D100BFCA430280704713
:100F700070B50246002400230025002040F66A16C2
:100F8000B14200D100BFC1F3421501F01F03012699
:100F900006FA03F3012D02D19689334006E0022DB3
:100FA00002D1168A334001E0968A33400C120126A2
:100FB00006FA04F41688344013B10CB1012000E0A5
:100FC000002070BD10B50022002340F66A14A14233
:100FD00000D100BF0A1201249440A3B2DC43048074
:100FE00010BD0000003801400044004000480040AF
:100FF000004C00400050004001460020FE4A1068AE
:1010000000F03800084310607047FB49096821F080
:101010000801F94A116011460968014311607047DF
:10102000F549096821F01001F34A11601146096879
:10103000014311607047F148EF494860F04848604B
:101040007047EE48EC494860ED4848607047EA4810
:10105000006940F08000E84908617047E64800698F
:1010600040F08000E449086170470420E249C96803
:1010700001F0010109B101200EE0DF49C96801F06A
:10108000040109B1022007E0DB49C96801F0100141
:1010900009B1032000E00420704700B50246042394
:1010A000FFF7E3FF034603E0FFF7DFFF0346521EAF
:1010B000012B01D1002AF7D102B90523184600BD42
:1010C00030B5044604254FF43020FFF7E6FF05460F
:1010D000042D17D1C848006940F00200C6490861D4
:1010E00008464461006940F0400008614FF4302038
:1010F000FFF7D3FF0546C048006941F6FD7108407F
:10110000BD490861284630BD10B504244FF4302095
:10111000FFF7C3FF0446042C16D1B748006940F01E
:101120000400B54908610846006940F040000861C4
:101130004FF43020FFF7B1FF0446AF48006941F695
:10114000FB710840AC490861204610BD00B502465D
:101150000423FFF78AFF034603E0FFF786FF0346F9
:10116000521E012B01D1002AF7D102B905231846DE
:1011700000BD10B504244FF43020FFF7E7FF04460C
:10118000042C16D19C48006940F004009A4908617B
:101190000846006940F0400008614FF43020FFF736
:1011A000D5FF04469448006941F6FB710840924916
:1011B0000861204610BD00208F49C96901F0020175
:1011C00009B1012000E00020704730B5A5250424B6
:1011D000FFF7F1FF00B100254FF43020FFF75DFF6E
:1011E0000446042C3AD18548834988608448886045
:1011F0000846006940F0200008610846006940F098
:10120000400008614FF43020FFF747FF0446042CEC
:101210001BD17948006941F6DF71084076490861C1
:101220000846006940F01000086176480580E00239
:10123000FFF733FF0446052C10D06F48006941F6D4
:10124000EF7108406C49086108E0052C06D06A4837
:10125000006941F6EF71084067490861204630BDDA
:1012600078B506460C46042500200090E802FFF7FA
:1012700014FF0546042D24D15F48006940F00100A9
:101280005D4908613480E802FFF707FF0546042D39
:1012900010D1B01C0090200C00990880E802FFF7E4
:1012A000FCFE05465448006941F6FE71084052496B
:1012B000086106E05048006941F6FE7108404E4959
:1012C0000861284678BD70B504460D460426F00234
:1012D000FFF7E3FE0646042E11D14748006940F0AF
:1012E0000100454908612580F002FFF7D6FE064659
:1012F0004148006941F6FE7108403F4908613046A7
:1013000070BD70B505460E460424E002FFF7C5FE29
:101310000446042C17D1394837498860384888601A
:101320000846006940F0100008612E80E002FFF7D7
:10133000B4FE0446052C06D02F48006941F6EF7133
:1013400008402D490861204670BD2DE9F043044650
:101350004FF6FF763746B046B1460425E443E6B281
:10136000C4F30727C4F307484FEA1469E802FFF7FC
:1013700094FE0546042D49D120481F498860204825
:1013800088600846006940F010000861FF2E06D012
:101390001C4808300680E802FFF77FFE0546042D52
:1013A00008D1FF2F06D017480A300780E802FFF760
:1013B00074FE0546042D0AD1B8F1FF0F07D011487D
:1013C0000C30A0F80080E802FFF767FE0546042D08
:1013D0000AD1B9F1FF0F07D00A480E30A0F80090EB
:1013E000E802FFF75AFE0546052D0FD002480069B6
:1013F00041F6EF71084007E00020024023016745F5
:10140000AB89EFCD00F8FF1F664908612846BDE8AB
:10141000F08330B5054604244FF43020FFF73DFE3D
:101420000446042C41D160485E4988605F4888606A
:101430000846006940F0200008610846006940F055
:10144000400008614FF43020FFF727FE0446042CCB
:1014500022D15448006941F6DF71084051490861C2
:101460000846006940F0100008611DB10020504995
:10147000088002E0A5204E4908804FF43020FFF795
:101480000CFE0446052C10D04648006941F6EF7169
:1014900008404449086108E0052C06D0414800692D
:1014A00041F6DF7108403F490861204630BDF0B584
:1014B00005460E46174604243B483A4988603B4897
:1014C0008860E002FFF7E9FD0446042C19D1354895
:1014D000006940F010003349086147F0F8003043DC
:1014E00028433349891C0880E002FFF7D6FD0446F3
:1014F000052C06D02B48006941F6EF7108402949B8
:1015000008612046F0BD2748C0698008704725481B
:10151000006A704700202349096801F0200109B1E1
:10152000012000E00020704729B11E4A12690243E1
:101530001C4B1A6104E01B4A12698243194B1A6161
:10154000704701460020012908D1164AD26902F0ED
:1015500001020AB1012008E0002006E0114AD26829
:101560000A400AB1012000E0002070470D49C86020
:10157000704704200B49C96801F0010109B101203D
:101580000EE00849C96801F0040109B1022007E032
:101590000449C96801F0100109B1032000E00420EA
:1015A000704700000020024023016745AB89EFCD62
:1015B00000F8FF1F10B50446F748844209D1012105
:1015C0004805FFF7D8FA00214FF40010FFF7D3FACF
:1015D00008E001218805FFF7CEFA00214FF48000D2
:1015E000FFF7C9FA10BD2DE9F04385B004460D465A
:1015F0000026B1460427DFF8A483A6884FF6C07002
:1016000006406846FFF723FADDF80880E448B8FB97
:10161000F0F01FFA80F946EA0906A68020884FF606
:10162000FE71084020800026DE49286888420CD8D8
:1016300028684000B8FBF0F087B2042F00DA0427D6
:101640003E4309F10100208427E0E8884BF6FF7152
:10165000884206D1286800EB4000B8FBF0F087B262
:1016600009E0286800EBC00101EB0010B8FBF0F0C6
:1016700087B247F48047C7F30B0008B947F001076A
:1016800047F4004006434FF4967009FB00F04FF416
:101690007A7190FBF1F0401C2084A683208840F0F2
:1016A0000100208026884FF6F5300640A888698919
:1016B000084306432680A88929890843208105B06C
:1016C000BDE8F08341F288310160002181804BF652
:1016D000FF71C1800021018141814FF480418181EE
:1016E000704721B1028842F00102028004E00288C2
:1016F0004FF6FE731A400280704721B1828842F48F
:101700000062828004E082884FF2FF731A40828078
:10171000704721B1828842F48052828004E082883E
:101720004EF6FF731A408280704721B1028842F45E
:101730008072028004E002884FF6FF631A40028044
:10174000704721B1028842F40072028004E00288EE
:101750004FF6FF531A400280704721B1028842F4CD
:101760008062028004E002884FF6FF331A40028054
:1017700070470A46002181894FF60173194002F033
:10178000FE0319438181704721B1828942F0010231
:10179000828104E082894FF6FE731A40828170478D
:1017A00021B1028842F04002028004E002884FF634
:1017B000BF731A40028070471AB183880B4383803D
:1017C00002E083888B438380704701827047014623
:1017D000088AC0B2704712B141F0010102E04FF631
:1017E000FE7319400182704708B502460020009040
:1017F00000920098084400900098008808BD21B12C
:10180000028842F40042028003E00288C2F30E0222
:1018100002807047B1F5006F04D1028842F4006283
:10182000028004E002884FF2FF731A400280704782
:10183000B1F5005F04D1028842F40052028004E056
:1018400002884DF6FF731A400280704721B102886A
:1018500042F48052028004E002884EF6FF731A4080
:1018600002807047B1F5006F04D1028842F4006233
:10187000028004E002884FF2FF731A400280704732
:1018800021B1028842F02002028004E002884FF673
:10189000DF731A40028070470146088B00127047C0
:1018A00021B1028842F01002028004E002884FF663
:1018B000EF731A400280704721B9028842F080021B
:1018C000028004E002884FF67F731A40028070475E
:1018D000B1F5804F05D0828B4BF6FF731A4082839F
:1018E00003E0828B42F480428283704770B50246E7
:1018F0000024002500230020958A138B1B0445EA51
:10190000030626F07F4404EA01068E4201D101203D
:1019100000E0002070BD10B5014600200023002229
:101920008B8A0A8B120443EA020424F07F4010BD24
:101930000CB50246002000230193009300920B0F88
:10194000019321F07F41019B1BB1009B1433009355
:1019500003E0090C009B18330093009B1B680B40AD
:101960000BB1012000E000200CBD002221F07F42DD
:10197000D3438382704730B5024600200023948809
:1019800001F0E06504EA154321F07F41948A0C40A0
:1019900054B14BB1012008E00054004000127A001D
:1019A00040420F00A0860100002030BD002221F03F
:1019B0007F42D3438382704710B50446FE48844279
:1019C00009D101214806FFF7D6F800214FF0007039
:1019D000FFF7D1F808E001218806FFF7CCF80021D5
:1019E0004FF08060FFF7C7F810BD30B50246002009
:1019F0000023146824F002041460146844F0010405
:101A0000146000E05B1C546804F001041CB94FF63C
:101A1000FF74A342F6D1546804F001040CB900200D
:101A20006CE08C79012C04D1146844F080041460BB
:101A300003E0146824F080041460CC79012C04D1F4
:101A4000146844F04004146003E0146824F0400477
:101A500014600C7A012C04D1146844F02004146042
:101A600003E0146824F0200414604C7A012C04D1A3
:101A7000146844F01004146003E0146824F01004A7
:101A800014608C7A012C04D1146844F008041460AA
:101A900003E0146824F008041460CC7A012C04D10B
:101AA000146844F00404146003E0146824F004048F
:101AB00014608C78A407CD7844EA05640D7944EA73
:101AC00005444D7944EA05540D886D1E2C43D461BC
:101AD000146824F001041460002300E05B1C5468C7
:101AE00004F001041CB14FF6FF74A342F6D1546810
:101AF00004F001040CB1002000E0012030BD10B55D
:101B00000021837A012202FA03F1AC4A126842F002
:101B10000102AA4B1A60A94A1C3212688A43A74BD9
:101B20001C331A60027BCAB9A44A0C3212688A4379
:101B3000A24B0C331A604288C38842EA03439F4A8F
:101B40004032847A42F834300288838842EA034380
:101B50009A4A4032847A02EBC4025360027B012A23
:101B600019D1964A0C3212680A43944B0C331A600E
:101B70004288038842EA0343904A4032847A42F81A
:101B80003430C288838842EA03438C4A4032847AE4
:101B900002EBC4025360C27A3AB9884A121D126835
:101BA0008A43864B1B1D1A6006E0844A121D126888
:101BB0000A43824B1B1D1A60028932B97F4A1432D4
:101BC00012688A437D4B14331A600289012A06D1B8
:101BD0007A4A143212680A43784B14331A60427BF3
:101BE000012A06D1754A1C3212680A43734B1C3312
:101BF0001A60724A126822F00102704B1A6010BD1E
:101C000000218171C171017241728172C172817052
:101C1000C1700321017102214171012101807047CE
:101C20006649096841F00101644A1160114609687A
:101C300043F60E729143614A11601146096841EA08
:101C4000002111601146096821F0010111607047FF
:101C500021B1026842F48032026003E0026822F49B
:101C6000803202607047E1B1026842F08002026097
:101C70004FF4C272125842F480734FF4C272135080
:101C80004FF4CA72125842F480734FF4CA72135060
:101C90004FF4D272125842F480734FF4D272135040
:101CA0001BE0026822F0800202604FF4C2721258F8
:101CB00022F480734FF4C27213504FF4CA72125858
:101CC00022F480734FF4CA7213504FF4D272125838
:101CD00022F480734FF4D2721350704710B502464D
:101CE0000020936803F08063B3F1806F00D110E0AF
:101CF000936803F00063B3F1006F01D1012008E0A5
:101D0000936803F08053B3F1805F01D1022000E0BB
:101D10000420042879D002F5C07303EB00131B687C
:101D200003F0010402F5C07303EB00131C600B7A8F
:101D30007BB94B7A0C8843EA445302F5C07404EB38
:101D400000142468234302F5C07404EB00142360DC
:101D500010E00B7A4C6843EAC4034C7A234302F543
:101D6000C07404EB00142468234302F5C07404EB30
:101D7000001423608B7A03F00F038B7202F5C0739B
:101D800003EB00135B6823F00F0402F5C07303EB51
:101D900000135C6002F5C07303EB00135B688C7A80
:101DA000234302F5C07404EB001463608B7B1C06B4
:101DB0004B7B44EA034403E00064004000660040BB
:101DC0000B7B44EA0323CC7A234302F5C07404EB73
:101DD0000014A3608B7C1C064B7C44EA03440B7C00
:101DE00044EA0323CC7B234302F5C07404EB0014C4
:101DF000E36002F5C07303EB00131B6843F00104BA
:101E000002F5C07303EB00131C6010BD10B5024651
:101E1000002321B1012907D002290FD109E09068E0
:101E2000F94C00EA04030BE09068F84C00EA040364
:101E300006E09068F64C00EA040301E0002300BFCE
:101E400000BFF44C181BA34216D007DC83B16FF01F
:101E50008060184470B1022818D111E0B0F5007FFD
:101E600010D0ED4C204448B1B0F5003F0ED10BE04E
:101E700002230DE000230BE0002309E0002307E02C
:101E8000012305E0012303E0012301E0002300BF5B
:101E900000BFD8B210BD21B1012907D002290FD14E
:101EA00009E0826842F0800282600AE0826842F4BF
:101EB0000042826005E0826842F40002826000E035
:101EC00000BF00BF704710B500F5D87303EB0113D6
:101ED0001B6803F004031372137A53B900F5D87327
:101EE00003EB01131B6840F2FF7404EA53531360C1
:101EF00009E000F5D87303EB01131B686FF0604431
:101F000004EAD303536000F5D87303EB01131B6895
:101F100003F00203537200F5D87303EB01135B68FF
:101F200003F00F03937200F5D87303EB01135B68A2
:101F30001B0AD37400F5D87303EB01139B68D372AB
:101F400000F5D87303EB01139B681C0A147300F5AA
:101F5000D87303EB01139B681C0C547300F5D87302
:101F600003EB01139B681B0E937300F5D87303EB0F
:101F70000113DB68D37300F5D87303EB0113DB683F
:101F80001C0A147400F5D87303EB0113DB681C0CF6
:101F9000547400F5D87303EB0113DB681B0E9374C4
:101FA00021B9C36843F02003C36003E0036943F031
:101FB0002003036110BD21B9C26842F02002C26053
:101FC00003E0026942F020020261704702460020ED
:101FD00019B9D36803F0030006E0012903D113699E
:101FE00003F0030000E00020704710B502460B46E6
:101FF00000204FF6FF71BBB9146824F0020444F0CE
:102000000104146000E0491E546804F00304012C2C
:1020100001D00029F7D1546804F00304012C01D049
:10202000002032E0012030E0012B13D1146824F0AD
:102030000304146000E0491E546804F003040CB16A
:102040000029F8D1546804F003040CB100201CE00E
:1020500001201AE0022B17D1146824F0010444F087
:102060000204146000E0491E546804F00304022CCA
:1020700001D00029F7D1546804F00304022C01D0E8
:10208000002002E0012000E0002010BD01460020F9
:102090000A6822F0010242F002020A604A6802F075
:1020A0000302022A00D10120704701464FF6FF7259
:1020B00000200B6823F002030B6000E0521E4B6807
:1020C00003F00203022B01D1002AF7D14B6803F081
:1020D0000203022B00D001207047014600208A69CC
:1020E00002F070007047014600208A69100E7047A8
:1020F000014600208A69C2F3074070471AB143695C
:102100000B43436102E043698B434361704710B561
:102110000246002001F4700343B19369C1F3130434
:1021200023400BB101202DE000202BE001F0807353
:1021300043B15368C1F3130423400BB1012021E0E4
:1021400000201FE001F0006343B19368C1F3130462
:1021500023400BB1012015E0002013E001F00073D3
:1021600043B1D368C1F3130423400BB1012009E04C
:10217000002007E01369C1F3130423400BB10120D1
:1021800000E0002010BD0022244B994202D1002320
:10219000836111E0C1F3130201F000730BB1C2605F
:1021A0000AE001F080630BB1026105E001F0006319
:1021B0000BB1826000E0426070470246002002EAF4
:1021C00001030BB1012000E00020704770B5044608
:1021D0000D46002660692840002872D0B5F5807F42
:1021E00069D01DDC082D42D006DC012D2DD0022D3A
:1021F00031D0042D7FD134E0102D3ED0202D42D09F
:10220000402D78D145E000000300000400030008E1
:1022100000000310000100080001FFF77000F0301B
:10222000B5F5004F61D009DCB5F5007F4AD0B5F5B2
:10223000806F4DD0B5F5006F5DD150E0B5F5803FB2
:102240002DD0B5F5003F56D12FE0A0685549FFF7D6
:10225000B4FF064651E0E0680321FFF7AEFF0646F3
:102260004BE0E0680821FFF7A8FF064645E0E0687C
:102270001021FFF7A2FF06463FE020690321FFF788
:102280009CFF064639E020690821FFF796FF0646C5
:1022900033E020691021FFF790FF06462DE06068CB
:1022A0000821FFF78AFF064627E060681021FFF744
:1022B00084FF064621E0A0690121FFF77EFF064664
:1022C0001BE01BE0A0690221FFF777FF064614E040
:1022D000A0690421FFF771FF06460EE00BE0A0693C
:1022E0007021FFF76AFF064607E060680421FFF7E8
:1022F00064FF064601E0002600BF00E000263046ED
:1023000070BDB1F5007F3AD00FDC202928D006DC63
:1023100001291CD004291DD0082940D11DE04029E5
:1023200021D0B1F5807F3AD126E0B1F5004F31D010
:1023300006DCB1F5806F25D0B1F5006F2FD124E018
:10234000B1F5803F12D0B1F5003F28D111E0154A18
:10235000826025E00822C26022E01022C2601FE0F5
:10236000082202611CE01022026119E0082242608A
:1023700016E01022426013E00422426010E00422C2
:1023800042600DE0042242600AE0002282610422E1
:10239000426005E0002282610422426000E000BF4A
:1023A00000BF704701010100094880470948004704
:1023B000FEE7FEE7FEE7FEE7FEE7FEE7FEE7FEE7F5
:1023C000FEE7FEE704480549054A064B7047000052
:1023D00013030008ED000008200200202008002060
:1023E00020040020200400201CB5642000F0AAF87E
:1023F00000F0C8F800F0C8FB00F0D8FB00F046FD84
:1024000000F059FA00F046FC2FA1002000F0A2FCD9
:1024100031A1022000F09EFC33A1062000F09AFCBE
:1024200051E001213448FEF756F960B941208DF89A
:1024300000000121684600F088FD4122202106208D
:1024400000F03DFC34E002212B48FEF744F960B96E
:1024500042208DF800000121684600F076FD4222FE
:102460002021062000F02BFC22E004212248FEF768
:1024700032F960B943208DF800000121684600F070
:1024800064FD43222021062000F019FC10E0082101
:102490001948FEF720F958B944208DF800000121B1
:1024A000684600F052FD44222021062000F007FC7F
:1024B000684600F07EFD04462CB19DF800205821AE
:1024C000062000F0FCFBACE7202020596F756E67FA
:1024D00054616C6B2000000020202043414E2054AA
:1024E000455354202000000054583A202020205208
:1024F000583A20202000000000080140704700BF2B
:10250000FEE700BFFEE700BFFEE700BFFEE7704743
:1025100070477047704700EBC001C9004FF0E022E0
:102520005161002191610521116100BF4FF0E0214F
:10253000096901F480310029F8D004214FF0E0222C
:102540001161704700B5034603E04FF47A70FFF75E
:10255000E2FF181EA3F101018BB2F6D100BD10B548
:10256000044603E04FF47A70FFF7ECFF201EA4F15D
:1025700001018CB2F6D110BD10B54FF4A060FDF78B
:1025800049FF10BD10B5FEF761F94FF48030FEF73A
:102590007DF9FEF7BAF90446012C24D14FF4E0117D
:1025A0000004FEF7DBF90020FEF7F5F9A002FEF7C4
:1025B000FBF90020FEF701FA0220FEF71DFD1020B6
:1025C000FEF72EFD0120FEF7D5F900BF3920FEF7FA
:1025D00080F90028FAD00220FEF7CFF900BFFEF7FD
:1025E000D5F90828FBD110BD014600BF704700BFD8
:1025F0009E4A128802F04002002AF9D0C2B29B4BD8
:102600001B1D1A8070470FB410B5B4B0002437A852
:102610000090C92101A8009B369A00F037FD0EE01A
:102620002046621CD4B201AA115C9048FEF71CFC43
:1026300000BF40218D48FEF785FC0028F9D0C82C4A
:1026400004DA01A800F036FEA042E9D8002000908C
:1026500034B010BC5DF814FB10B586B004460121FF
:1026600044F20400FEF760FA4FF40070ADF8140075
:1026700003208DF8160018208DF8170005A97C4856
:10268000FDF796FF4FF48060ADF8140004208DF83C
:10269000170005A97648FDF78BFF25208DF800006F
:1026A00003208DF801008DF8020001208DF8030051
:1026B0006846FDF7B4FE01940020ADF80800ADF8BF
:1026C0000A00ADF80C00ADF810000C20ADF80E00BB
:1026D00001A96648FEF7CFFA012240F2255163486E
:1026E000FEF761FB01216148FEF751FB06B010BD0A
:1026F00010B540F225515D48FEF73AFC002838D06D
:102700005A48FEF7B5FBC4B221465AA000F0D8FCE7
:102710005948008800F4004058BB5748008800F42E
:10272000804060B10A2C03D000205349088020E08B
:102730005148008840F400404F49088019E00D2CB2
:1027400006D14D48008840F480404B49088010E095
:1027500049480088C0F30D0048490C544648008899
:10276000401C4549088008460088C72801DD002034
:10277000088010BD0FB410B5B4B0002437A8009085
:10278000C92101A8009B369A00F080FC0EE020468B
:10279000621CD4B201AA115C3948FEF765FB00BF88
:1027A00040213748FEF7CEFB0028F9D0C82C04DAC8
:1027B00001A800F07FFDA042E9D80020009034B0CD
:1027C00010BC5DF814FB10B586B00446012108204A
:1027D000FEF7AAF901218804FEF7B3F94FF400606F
:1027E000ADF8140004208DF8170005A92548FDF761
:1027F000DFFE4FF48060ADF8140003208DF8160062
:1028000018208DF8170005A91E48FDF7D1FE019488
:102810000020ADF80800ADF80A00ADF80C00ADF8E6
:1028200010000C20ADF80E0001A91548FEF723FAA0
:10283000002240F225511248FEF7B5FA0121104856
:10284000FEF7A5FA4FF4E060FDF7E4FD27208DF8D0
:10285000000000208DF8020001208DF8030068467A
:10286000FDF7DDFD06B010BD7047000000380140E7
:1028700000080140256300002C00002030000020EB
:1028800000480040000C014008B501211C20FEF763
:102890004BF901214805FEF754F9C020ADF80000BE
:1028A0001C208DF8030003208DF802006946B14812
:1028B000FDF77EFE08BD1FB5FFF7E6FF0020ADF86F
:1028C00004004BF6FF70ADF80600C020ADF808001C
:1028D0004FF48060ADF80A000001ADF80C00A64886
:1028E00000906946A548FEF77EFE0121A348FEF749
:1028F000F8FE1FBD2DE9F04105460F4614461E4661
:1029000001219E48FEF711FF00BF9D499B48FEF73D
:10291000EDFF0028F9D0002229469848FEF75BFF1A
:1029200000BF98499548FEF7E1FF0028F9D03946E5
:102930009248FEF74AFF00BF9249891C8F48FEF774
:10294000D5FF0028F8D00CE021788C48FEF73DFF39
:10295000641C00BF8B49891C8848FEF7C7FF00280C
:10296000F8D0301EA6F101018EB2EDD101218348CD
:10297000FEF7E7FEBDE8F08170B504460E46154649
:1029800001217E48FEF7D1FE00BF7D497B48FEF75E
:10299000ADFF0028F9D0002221467848FEF71BFF42
:1029A00000BF78497548FEF7A1FF0028F9D03146ED
:1029B0007248FEF70AFF00BF7249891C6F48FEF794
:1029C00095FF0028F8D029466C48FEF7FEFE00BFB0
:1029D0006C49891C6948FEF789FF0028F8D001215D
:1029E0006648FEF7AEFE70BD2DE9F04106460F4683
:1029F00015461C4600BF4FF400316048FEF798FFB3
:102A00000028F8D101215D48FEF78FFE00BF5C4928
:102A10005A48FEF76BFF0028F9D00022314657488C
:102A2000FEF7D9FE00BF57495448FEF75FFF002864
:102A3000F9D001215148FEF754FE39464F48FEF7C0
:102A4000C4FE00BF4F49891C4C48FEF74FFF0028C9
:102A5000F8D001214948FEF768FE00BF48494748C1
:102A6000FEF744FF0028F9D0012231464348FEF723
:102A7000B2FE00BF4249491C4048FEF737FF00281C
:102A8000F8D016E0012C07D100213C48FEF765FE86
:102A900001213A48FEF755FE39493F313748FEF7E4
:102AA00025FF30B13548FEF792FE28706D1C601E80
:102AB00084B2002CE6D101213048FEF74EFEBDE87D
:102AC000F08170B504460D4600BF4FF400312B482D
:102AD000FEF72EFF0028F8D101212848FEF725FE39
:102AE00000BF27492548FEF701FF0028F9D0002242
:102AF00021462248FEF76FFE00BF22491F48FEF71D
:102B0000F5FE0028F9D001211C48FEF7EAFD294610
:102B10001A48FEF75AFE00BF1A49891C1748FEF7EB
:102B2000E5FE0028F8D001211448FEF7FEFD00BFA5
:102B300013491248FEF7DAFE0028F9D00122214697
:102B40000E48FEF748FE00BF0D49491C0B48FEF732
:102B5000CDFE0028F8D000210848FEF7FEFD012137
:102B60000648FEF7EEFD0548FEF731FE0646304604
:102B700070BD0000000C0140400D030000540040F7
:102B8000010003008200070008B501217C20FDF749
:102B9000CBFF0F20ADF8000048208DF803006946F8
:102BA0000148FDF705FD08BD0008014008B50121F9
:102BB0007C20FDF7B9FF01210846FDF7B5FF4FF472
:102BC000C040ADF8000010208DF8030003208DF800
:102BD000020069460F48FDF7EBFC01210E48FDF7A6
:102BE000B8FD4FF4C0410B48FDF791FD08BD10B58D
:102BF000044622464FF480410648FDF78AFD10BD89
:102C000010B5044622464FF400510248FDF781FDFD
:102C100010BD0000000801400004300000B587B07E
:102C20001C228FA1684600F064FB1C236A46002129
:102C30007820FFF75FFE07B000BD70B5B0241BE041
:102C4000224600217820FFF797FE102200217820ED
:102C5000FFF792FE002211467820FFF78DFE002537
:102C600006E0002240217820FFF786FE681CC5B2EE
:102C7000842DF6DB601CC4B2B82CE1DB70BD08B556
:102C80007EA00068009003236A4600217820FFF7A9
:102C900031FE08BD10B5FFF7F2FFFFF7CEFFFFF7DB
:102CA000BDFF10BD10B50446812200217820FFF73A
:102CB00063FE224600217820FFF75EFE10BD2DE95D
:102CC000F04705460C4616464FF0000AA01CC4B259
:102CD000D1463AE005F1B000C2B200217820FFF7FA
:102CE0004BFE2746E01704EB107000111030C2B203
:102CF00000217820FFF740FEE01704EB1070001170
:102D0000A4EB0010C2B200217820FFF735FE4FF08F
:102D1000000811E00AEB0610A0F5007058490A5CA3
:102D200040217820FFF728FE0AF1010000F0FF0A99
:102D300008F1010000F0FF08B8F1080FEADB681C99
:102D4000C5B209F1010000F0FF09B9F1020FC1DBC2
:102D5000BDE8F08770B506460C46002508E014F87B
:102D6000012BE806010E3046FFF7A9FF681CC5B22B
:102D700020780028F3D170BD2DE9F04705460C46B8
:102D800016464FF0000AD14638E005F1B000C2B255
:102D900000217820FFF7F0FD2746E01704EB1070C4
:102DA00000111030C2B200217820FFF7E5FDE017D6
:102DB00004EB10700011A4EB0010C2B200217820C7
:102DC000FFF7DAFD4FF000080FE00AEB46102D493F
:102DD0000A5C40217820FFF7CFFD0AF1010000F0E6
:102DE000FF0A08F1010000F0FF08B8F1100FECDB5A
:102DF000681CC5B209F1010000F0FF09B9F1020F2A
:102E0000C3DBAF2200217820FFF7B6FDBDE8F087D5
:102E100070B5002420E004F1B000C2B20021782097
:102E2000FFF7AAFD102200217820FFF7A5FD02225E
:102E300000217820FFF7A0FD002509E005EBC41074
:102E400011490A5C40217820FFF796FD681CC5B245
:102E5000802DF3DB601CC4B2082CDCDB70BD0000ED
:102E6000AE0010D580A83FD300B0408D14A1C8DAC1
:102E70001281FFD9F1DB302000A4A6AFAE8D100087
:102E80009C4700089C4D00081C4E000800B589B006
:102E900001210420FDF748FE01214806FDF751FEFF
:102EA0004FF48050ADF8200003208DF82200182048
:102EB0008DF8230008A97248FDF77AFB4FF40060F3
:102EC000ADF8200048208DF8230008A96C48FDF7D4
:102ED0006FFB00208DF81A008DF81B008DF81C0088
:102EE00001208DF81D0000208DF81E008DF81F00B8
:102EF0008DF816008DF8170007208DF818000620B1
:102F00008DF819000920ADF8140005A95D48FEF7F9
:102F10006CFD00208DF80E008DF80F0001208DF85B
:102F200010000020ADF80400ADF80600ADF8080070
:102F3000ADF80A00ADF80C0001208DF8110001A8D1
:102F4000FEF7DDFD002009B000BDF0B585B00746F5
:102F50000D46002412200090002001908DF80800FA
:102F60008DF809008DF80A5000BF05E0395D0DF1BC
:102F70000B000155601C84B2AC42F7DB6946414846
:102F8000FEF7ACFE0646002401E0601C84B2314628
:102F90003C48FEF73BFF18B940F6FF708442F4DB73
:102FA00040F6FF70844202DB012005B0F0BD002036
:102FB000FBE730B585B0054600213248FFF706F83B
:102FC00010B9002005B030BD6A4600212D48FEF73B
:102FD0007AFF002404E00DF10B00005D2855641C0D
:102FE000082CF8D39DF80A00ECE700B589B0002062
:102FF000019000908DF80800049005908DF818005D
:103000008DF819008DF81A008DF8230001900AE060
:1030100000210DF11B009DF8042081549DF804004F
:10302000401CC0B201909DF804000828F0DB04AAFF
:1030300000211448FEF747FF9DF81A0000900498FD
:1030400012281AD19DF81A008DF80800002001906E
:103050000DE00DF11B009DF80410405C02A99DF8E5
:10306000042088549DF80400401CC0B201909DF8D3
:1030700004009DF800108842EBDB09B000BD0000A1
:103080000008014000640040704700007CB51D4608
:1030900016460C00009001D02044401E074B7B4494
:1030A0002A4669460190304600F0E7F905461CB112
:1030B0000020694600F0F4F928467CBD09040000B0
:1030C0000FB4044910B503AA029800F00DFA10BC21
:1030D0005DF814FB2800002070B50C460546012A57
:1030E00005D02878800600D5EA69002302E0012394
:1030F00005E05B1C934202D2E05C0028F9D1A8698C
:10310000E618C01AA861286A18442862284600F008
:1031100026F904E0D5E9012114F8010B9047B442E7
:10312000F8D3284600F031F970BD00002DE9F05FBA
:10313000894604464FF0000ADFF874B1FB44C0F83A
:1031400020A02046E1688847002874D0252806D0B2
:10315000D4E901219047206A401C2062F1E7002653
:103160005F462046E16888472028054607DB312D69
:1031700005D2781910F8200C08B10643F1E7B00722
:1031800001D526F00406C4F81CA00027C4F818A036
:103190002A2D09D0284601F0CBFA38B304EB870872
:1031A000303DC8F8185019E059F8041B204604EBCC
:1031B00087029161E1688847012F054618D1E069CF
:1031C000002820DA26F020061DE0D8F8180000EBD1
:1031D000800005EB40003038C8F818002046E16850
:1031E0008847054601F0A4FA0028EED1012F0AD045
:1031F0002E2D08D12046E16888477F1C0546022F06
:1032000046F02006C4DBA069002803DA404246F0FD
:103210000106A061F00701D026F010066C2D0BD03E
:10322000682D09D04C2D39D06A2D35D0742D35D06C
:103230007A2D33D016E038E0E1682F4620468847E3
:10324000B842054609D16C2F26D04FF48060E16862
:10325000064320468847054604E06C2F1AD04FF4F9
:10326000807006430DB3A5F14100192802D820351E
:1032700046F400664A462946204626604E46FCF73C
:103280006FFF80B101280BD0F61D26F0070000F17A
:10329000080956E74020E4E78020D8E70020D6E779
:1032A00006F104094DE7284652E7206ABDE8F09F81
:1032B000DC20000010B5431C02E010F8011B71B1C6
:1032C0008107FAD14FF0013202C88C1A8C4314EAFC
:1032D000C211F9D0C01A0A0603D0C01E10BDC01A10
:1032E00010BD0A0401D0801E10BD0902FCD0401E92
:1032F00010BD10B5203AC0F00B80B1E81850203A4C
:10330000A0E81850B1E81850A0E81850BFF4F5AF85
:103310005FEA027C24BFB1E81850A0E8185044BF0F
:1033200018C918C0BDE810405FEA827C24BF51F87C
:10333000043B40F8043B08BF7047D20728BF31F870
:10334000023B48BF11F8012B28BF20F8023B48BFC1
:1033500000F8012B7047704770477047704770B591
:10336000044685690068C10601D5302600E02026A4
:10337000C00707D070BDD4E9012130469047206ACC
:10338000401C20626D1EF6D570BD70B5044685697F
:103390000078C00707D170BDD4E9012120209047F3
:1033A000206A401C20626D1EF6D570BD09684A0572
:1033B00001D540B27047C905FCD500B27047096815
:1033C0004A0501D5C0B27047C905FCD580B2704727
:1033D0002DE9F0410646002410687529314616A5EE
:1033E00010D0FFF7E3FF002802DA404213A507E000
:1033F00031688A0701D512A502E0490704D511A555
:10340000012401E0FFF7DBFF00210A2206F1240777
:1034100009E0B0FBF2FCB0FBF2F302FB1C00303021
:1034200078541846491C0028F3D123462A463046D2
:10343000BDE8F04100F0CDB9000000002D00000013
:103440002B0000002000000011680268006A53058C
:1034500001D508700AE0D30501D5088006E01306FF
:1034600003D5C217C1E9000200E0086001207047DF
:1034700001694A1C02610878704700B58FB0CDE938
:1034800001310021059105497944CDE90310114628
:103490006846FFF74BFE0FB000BD0000E5FFFFFFE1
:1034A0000A6802F8010B0A607047D1E900239A42CA
:1034B00002D2531C0B601070704710B5436913B1F2
:1034C000AFF3008001E0FFF707FE012010BD127886
:1034D00000F124010A7000224A700122EDE7116810
:1034E0004FF0FF32E9E70000074B70B50D467B4413
:1034F000FFF7C3FF0446284600F0E9FB10B14FF088
:10350000FF3070BD204670BDFDF0FFFF2DE9FF5F6D
:1035100015468A460446DFF8AC80F8440027D8E90F
:1035200000103E46CDE9001010E03AF816106A4649
:1035300002A800F0D0FB411C07D02178890603D5F2
:10354000E269391891420DD80744761C207880062C
:1035500002D5E069B84205DDAE42E6DB3AF8160076
:103560000028E2D1A069C01BA0612046FFF7F7FE4A
:10357000D8E90010CDE90010002017E03AF8181043
:103580006A4602A800F0A7FBB0F1FF3F81460BD0CE
:1035900000250DF1080B05E0D4E901211BF8050019
:1035A00090476D1C4D45F7D308F10100B0428046AD
:1035B000E4DB206A384420622046FFF7E6FEBDE8DF
:1035C000FF9F0000121D00002DE9F0418046D21D32
:1035D00022F007020025D2E90002F52915A614D031
:1035E000011E72F1000106DA0023D0EB030063EB49
:1035F000020211A608E0D8F800108B0701D50FA62B
:1036000002E0490701D50EA601251146002408F164
:10361000240704E000F098F830323A55641C50EA70
:103620000102F7D12B46324621464046BDE8F04123
:1036300000F0CFB8000000002D0000002B000000BB
:103640002000000030B4002100F1240408E002F062
:103650000705D208303542EA4372DB086554491C3D
:1036600052EA0305F3D10468002310A2250707D509
:10367000A40600D421B1C46901230DA2641EC46153
:1036800030BC00F0A6B810B5044621461068FFF71C
:1036900096FE02462046BDE810400023D2E7D21D28
:1036A00022F00701D1E90023CCE700000000000070
:1036B00030000000F0B40D460188090502D5214C08
:1036C0007C4402E01F4C7C440E34002100F12406AF
:1036D00008E002F00F071209E75D42EA03721B09D6
:1036E0007754491C52EA0307F3D1027800231207EA
:1036F00004D5702D06D009B1022311342246F0BC46
:1037000000F067B801231034F8E770B504460D46A1
:1037100021461068FFF753FE024629462046BDE8C1
:1037200070400023C6E7D21D22F00703D3E900232F
:10373000C0E70368126843F0200303600823C361F5
:103740000023B7E7741B000030B5B0F10A024FEA5E
:10375000900E71F100034EEA817EB0EB0E0061EB3A
:1037600091014FEA101E4EEA017E10EB0E0041EB74
:1037700011114FEA102E4EEA016E10EB0E0041EBD4
:1037800011214FEA104E4EEA014E10EB0E0041EBB4
:103790001141401841F100014FEAD00040EA417068
:1037A0004FEAD10110EB80054FEA810444EA90749E
:1037B00044EB01046D1944EB0404521BA3414FF088
:1037C000000348BF0A3200D530BD401C41F1000162
:1037D00030BD2DE9F0470D4699469246044600F16A
:1037E00024080168880604D5E06921F010012160F1
:1037F00000E00120A84201DD471B00E00027A1698D
:103800007A1902EB0900081AA0612078C00602D4D8
:103810002046FFF7A4FD002608E0D4E901211AF8AC
:1038200006009047206A401C761C20624E45F4DB5F
:103830002078C0060AD52046FFF791FD06E0D4E9BE
:10384000012130209047206A401C2062381EA7F1D9
:103850000107F4DC07E0D4E9012118F805009047DE
:10386000206A401C2062281EA5F10105F3DC2046D9
:10387000FFF78BFD2078000602D50220BDE8F08717
:103880000120FBE770472DE9FF4F0C461E464FF025
:10389000FF378BB0D2E90001DDF860800A908A46DC
:1038A000C1F30A5505B93D46002108464FF0000016
:1038B000BAF1000F00F4400005DA00EB80004FF48D
:1038C000400101EA50004FEA9059B9F1010F00DDC3
:1038D000B9460A9850EA4A000ED044F61050A5F2B4
:1038E000FF3545432F14B8F1000F1ED07542291E35
:1038F0001EDDC9F100021CE0B8F1010F4FF000001D
:1039000001D0302103E0F24305E02154401CB042D5
:10391000FBDB30460022002121540B99C1F80880BE
:10392000C1E900200FB0BDE8F08FBD1B6D1CDEE7C4
:103930004A4600DA694206A800F05EFA06AB93E850
:10394000070003AB83E8070050460A9900F014FB18
:103950008DE80700A0F500501F3800900398002D57
:103960000ADD42F21F014A460844002303A90390DE
:10397000684600F07DFD09E0A0F500504A461F387A
:10398000002303A90390684600F087FD8DE8070037
:103990000004000C03D04FF0FF30410800E0104657
:1039A000B8F1000F03D00022009215461EE0751EEC
:1039B00005D4FFF7C9FE303262556D1EF9D5B34606
:1039C0000122084302D000227F1C04E02078302826
:1039D00001D100227F1E002A099784D01DE0112DFD
:1039E00007DAFFF7B1FE303262556D1C50EA010272
:1039F000F5D1084302D00098C8B10EE00021681E3E
:103A000005E0235C625C63542254401E491C8142E1
:103A1000F7DBAB46A81B401E0990002004F80B0002
:103A20000B98099AC0F80880C0E9002B7AE71126A4
:103A30004FF0000857E72DE9F04F88460446D21DA5
:103A400022F0070191B0D1E90001CDE90A0100F0AF
:103A50005BFE02460B98C00F01D02D2007E02068C6
:103A6000810701D52B2002E0202101EAC000032AB2
:103A7000099001D0072A05DB03464146204600F0A5
:103A80007BF90BE12078800601D5E06900E0062093
:103A9000B8F1650F814606D0B8F1660F18D0B8F1BD
:103AA000670F70D131E00020B9F1110F009001DBF8
:103AB000112301E009F101030AAA01A90CA8FFF7EB
:103AC000E2FEDDE90C70002609F10105834647E0BE
:103AD00001204B4600904FF000470AAA01A90CA80C
:103AE000FFF7D1FEDDE90DB00C995D46002610B957
:103AF00009F101000D18B9EB050003D4C0F1FF3640
:103B000009F10105A5EB09002BE0B9F1010F01DA7C
:103B10004FF001090020B9F1110F0090484601DD76
:103B2000112300E003460AAA01A90CA8FFF7ABFE87
:103B3000DDE90C704D4600268346207800070AD444
:103B4000AB4500DA5D4601A8012D04DD411911F8ED
:103B5000011C302907D04F4502DA17F1040F04DAAF
:103B6000012082460FE06D1EEEE7002F02DCED1B08
:103B70003E4403E0781CA84200DD7D1CB81B00F128
:103B8000010A4FF000472078000703D4AA4501DB63
:103B90004FF0FF3A0021B7F1004F0DF143088DF8C7
:103BA000431024D002202B23002F01DA7F422D2343
:103BB0000A21021EA0F1010000DC5FB197FBF1FCBD
:103BC00097FBF1F201FB1C7C17460CF1300C08F856
:103BD00001CDEEE7A8F1010003702188090501D5A8
:103BE000452100E06521A0F1010800F8011C0998B9
:103BF0000FA9A1EB0807FF1D00B10120411901EB3E
:103C0000EA70A1693844081A401EA0612078C006F5
:103C100002D42046FFF7A3FB099828B1D4E901217B
:103C20009047206A401C20622078C00622D520469A
:103C3000FFF795FB1EE0002E04DBB34502DD01A873
:103C4000805D00E03020D4E901219047206A401CCB
:103C50002062761CAAF101005FEA000A0AD100F096
:103C600087F8C0680168405CD4E901219047206A68
:103C7000401C2062281EA5F10105DCDC07E0D4E928
:103C8000012118F8010B9047206A401C2062381E61
:103C9000A7F10107F3DC2046FFF777FB032011B003
:103CA00041E610B5436913B1AFF3008001E0FFF7BF
:103CB0002DFC012010BD128800F124018284002215
:103CC000C2840122EDE711684FF0FF32E9E7007B83
:103CD00000F08000704770B516460C46054600F0AF
:103CE0003FF8036893F80101012806D0FF2C0FD894
:103CF000185D68B101202C7070BDD3F80701324601
:103D0000214603F2071303442846BDE870401847D4
:103D10004FF0FF3070BD754600F0EAF8AE46050082
:103D20006946534620F00700854618B020B5FEF7D7
:103D300049FBBDE820404FF000064FF000074FF070
:103D400000084FF0000B21F00701AC46ACE8C009B9
:103D5000ACE8C009ACE8C009ACE8C0098D467047C2
:103D600010B500F005F8001D10BD00BF010A0000ED
:103D700000487047E00100202DE9F0411F4604464D
:103D800003260168072A01F4006004DB08B116A5C8
:103D900005E016A503E008B115A500E015A521F082
:103DA00010002060A069C01EA0610FB1401EA0617C
:103DB0002046FFF7D4FA4FB1D4E9012138469047A5
:103DC000206A401C2062C01C206206E0206AFAE7DC
:103DD000D4E9012115F8010B9047761EF8D2204650
:103DE000FFF7D3FABDE8F0814E414E006E616E00E0
:103DF000494E4600696E66002DE9F0478146164639
:103E00008AB0354878440DC88DE80D0032487844B2
:103E1000801C03AC0DC884E80D0041F69B300844BB
:103E2000372190FBF1F290FBF1F5A5F1800501FB44
:103E300012041B3C02D56442012000E00020DFF8A0
:103E400098A080460027FA44AAF1BE0A0EE0E007D7
:103E50000AD03246684607EB470101230AEB81018D
:103E600000F01BFB8DE8070064107F1C002CEED1D6
:103E7000194F7F44AE3F19E0E80715D007EB041057
:103E80000DF1180A90E80E008AE80E00C068F042B2
:103E900001D1981908903246012306A903A800F021
:103EA000FCFA03AB83E807006D10641C002DE3D11E
:103EB0004FF0010332466946B8F1000F03A802D063
:103EC00000F0D6FA01E000F0E8FAC9E90001C9F80B
:103ED00008200AB0BDE8F087D414000010B50446ED
:103EE000AFF300802046BDE81040FCF79CB900000D
:103EF00000487047C00100204FF0013C50F8042BEF
:103F000051F8043B9A4221D1A2EB0C03934313EAEC
:103F1000CC1317D150F8042B51F8043B9A4215D119
:103F2000A2EB0C03934313EACC130BD150F8042BF0
:103F300051F8043B9A4209D1A2EB0C03934313EAD4
:103F4000CC13DBD04FF00000704700BFD01A01BA8D
:103F5000B1FA81F101F0180122FA01F0CB40C1F170
:103F60002001DBB2C0B2C01A2CFA01F3D11A91437E
:103F700011EAC311E6D170475FEA400C08BF91F027
:103F8000000F4FEA8C234FEAC12243EA51514FEA16
:103F90001C5018BF00F5F0404FEA300018BF41F048
:103FA00000415FEA6C5C00F02980BCF1FF3F08BF74
:103FB00040F080407047130C06BF12044FF0100C05
:103FC0004FF0000C130E04BF12020CF1080C130F7B
:103FD00004BF12010CF1040C930F04BF92000CF10A
:103FE000020CD30F04BF52000CF1010C11464FF02C
:103FF0000002A0F11F00A0EB0C00704711F0004F71
:1040000008BF704731F000413FF4D5AF0B0C06BF3D
:1040100009044FF0100C4FF0000C0B0E04BF090206
:104020000CF1080C0B0F04BF09010CF1040C8B0FF1
:1040300004BF89000CF1020CCB0F04BF49000CF146
:10404000010CCCF12003A0EB0C0022FA03F302FADE
:104050000CF241EA030100F10100704720F07F4CAF
:1040600080EA030023F07F47ACEB070303F57C53A2
:1040700000F0004003F1FF032DE980494FEA154BA2
:1040800009B44FEA144325EA0B4E24EA03480FF221
:10409000042606EB132749083E785FEA320203FB49
:1040A0000667C7F5000707FB06F64FEA54374FEAE5
:1040B000D64606F1020607FB066CCCF1005C4FEA1F
:1040C0001C472CEA074C07FB06F40CFB06F504EB37
:1040D00015464FEA961634BF00204FF000404FEAD5
:1040E000D13706FB07FC4FEA1C4C0CFB0BF7D21B2D
:1040F00003FB0CF761EB07010CFB0EF7B0EB07407D
:1041000072EB17420CFB08F734BFA2EB0742B2EB8D
:10411000074261EB17414FEA0C444FEA910706FB57
:1041200007FC4FEA1C4C0CFB0BF7B0EBC74072EBE3
:10413000573203FB0CF734BFA2EBC742B2EBC742C6
:1041400061EB57310CFB0EF7B0EBC70072EB577207
:104150000CFB08F734BFA2EBC702B2EBC70261EB5E
:104160005771039F4FEA816141EA921104EBCC043D
:104170004FEAD1374FEA826206FB07FC42EA90120F
:104180004FEA80604FEA1C4C0CFB0BF7D21B03FB81
:104190000CF761EB07010CFB0EF7B0EB074072EB7D
:1041A00017420CFB08F734BFA2EB0742B2EB074201
:1041B00061EB17414FEA8C554FEA910704EB9C24C1
:1041C00006FB07FC4FEA1C4C0CFB0BF7B0EBC7409F
:1041D00072EB573203FB0CF734BFA2EBC742B2EBD2
:1041E000C74261EB57310CFB0EF7B0EBC70072EB27
:1041F00057720CFB08F734BFA2EBC702B2EBC70241
:1042000061EB577115EB4C254FEA816141EA921140
:104210004FEA82624FEAD13742EA901206FB07FC6E
:1042200044F100044FEA80604FEA1C4C0CFB0BF792
:10423000D21B03FB0CF761EB07010CFB0EF7B0EB95
:10424000074072EB17420CFB08F734BFA2EB0742A2
:10425000B2EB074261EB174115EB1C154FEA8131B8
:1042600041EA92414FEA823242EA90424FEA80307C
:104270004FEA0C7644F1000448EA03434EEA0B4847
:104280004FF0000EB2EB080C71EB030724BF62463F
:1042900039464EEB0E0E4FF0000B001852414941CB
:1042A0004BEB0B0BB2EB080C71EB03077BF1000B34
:1042B00024BF624639464EEB0E0E4FF0000B00183D
:1042C000524149414BEB0B0BB2EB080C71EB03076E
:1042D0007BF1000B24BF624639464EEB0E0E51EACD
:1042E000020718BF46F0010616EB0E7655F10002E4
:1042F00054F1000103D5BDE88901BDE80088BDE89F
:104300008901BDE80048B619524141EB0101A3F112
:104310000103704780807F7E7D7C7B7A7978777619
:1043200076757473727171706F6E6E6D6C6C6B6A92
:104330006A69686867666665646463636261616030
:10434000605F5F5E5E5D5D5C5C5B5B5A5A595958AD
:104350005857575656555555545453535252525117
:10436000515050504F4F4F4E4E4D4D4D4C4C4C4B6D
:104370004B4B4A4A4A4949494848484747474746B4
:1043800046464545454444444443434343424242F0
:1043900042414141002B9C4630D477002BD01CB5C4
:1043A0004FEA370703B44FF010004FF01001BAF195
:1043B000000F06D0BCF1000FDCBF40F0080040F059
:1043C00008014FF000000FBCBDE810400BF1010BDD
:1043D000BBF1010F08BF5FEA170722BF12F101020C
:1043E00011F101014FF0004143F1000300F00040E2
:1043F00043EA00007047F9D35708D0E746EA06467B
:1044000013F1400F4FEA16461FDD13F1200FDFBFF7
:1044100016430A46002120335B42BED0C3F1200779
:1044200046EA064602FA07F74FEA164646EA070644
:10443000C3F1200722FA03F201FA07F721FA03F188
:104440004FF0000342EA0702A7E746EA020646EAFF
:1044500006464FEA164646EA0106BCBF46EA06464D
:10446000360C4FF000034FF000024FF0000194E7CC
:104470002DE9804C9A46934670B491E8380007C8FD
:1044800031EA400C48BF34EA430C03D5FFF7E6FDA0
:10449000FFF780FFF0BCBDE8008C2DE9804C9A4608
:1044A000934670B491E8380007C810F0804F08BFF9
:1044B00013F0804F03D100F005F8FFF76BFFF0BC5D
:1044C000BDE8008C20F07F4780EA030023F07F4C9A
:1044D00007EB0C03A3F57C5300F00040A3F1FE03AF
:1044E00092F0000F00F0B38095F0000F00F077809D
:1044F0002DE901494FEA11404FEA144621EA0048EC
:1045000000FB06FC24EA064708FB06F607FB08F852
:1045100000FB07F718EB06484CEB164C4FEA124B22
:1045200018EB07484FEA15464CEB174022EA0B4EB2
:104530000BFB06FC25EA06470EFB06F607FB0EFE04
:104540000BFB07F71EEB064E4CEB164C4FF000062C
:104550001EEB074E4CEB174B18EB0B0840F100001D
:1045600018EB0E0B58EB000840F100008F1A4FF0CB
:1045700000013CBFC943661B14BFB5EB040C00210E
:104580003CBFC943F61B4FEA17444EEA8E0E27EA9A
:1045900004454FEA1C4704FB07622CEA074C05FB65
:1045A00007F70CFB05F604FB0CFC16EB074642EB89
:1045B000174216EB0C4642EB1C421BEB060658EB6F
:1045C0000202414146EA9E0601D5BDE80189B619BD
:1045D000524141EB0101A3F10103BDE801894FEA1A
:1045E00014454FEA114724EA054621EA074C05FB2A
:1045F00007F406FB07F70CFB06F105FB0CFC11EBBF
:10460000074144EB17444FEA124711EB0C4144EBCE
:104610001C4422EA074C05FB07F206FB07F70CFBDC
:1046200006F605FB0CFC16EB074642EB174216EBB1
:104630000C4642EB1C456A1854F1000148BF704714
:10464000B619524141EB0101A3F10103704795F006
:10465000000F37D04FEA11424FEA144721EA0246D1
:1046600024EA074C02FB07F106FB07F70CFB06F4F4
:1046700002FB0CFC14EB074441EB17414FEA1547D2
:1046800014EB0C4441EB1C4125EA074C02FB07F5F7
:1046900006FB07F70CFB06F602FB0CFC16EB0746C5
:1046A00045EB174516EB0C4645EB1C42121951F130
:1046B000000148BF7047B619524141EB0101A3F117
:1046C000010370474FEA14454FEA114724EA0546B3
:1046D00021EA074C05FB07F106FB07F70CFB06F286
:1046E0004FF0000605FB0CFC12EB074241EB1741B3
:1046F00012EB0C4251EB1C4148BF7047921841EB42
:104700000101A3F101037047490050EAC12018BF1D
:1047100004204A0D18BF40F0010040F2FF72B2EBD6
:10472000515F08BF40F00200012808BF0520704714
:1047300030380A2801D2012070470020704700005D
:1047400010B500290AD00878002807D00548784419
:10475000FFF7D2FB002801D0002010BD02487844AA
:1047600010BD0000C60B0000BE0B000010B50029F4
:104770000AD00878002807D005487844FFF7BCFB2A
:10478000002801D0002010BD0248784410BD000070
:10479000B60B0000AE0B0000FFF74DB900000000A3
:1047A000000000000000000000000000000038FCD5
:1047B000FC3800000000000D0D000000000E1E007F
:1047C000001E0E00000000000000000020F8F8208D
:1047D000F8F82000020F0F020F0F0200387C444748
:1047E00047CC98000306041C1C07030030300080EF
:1047F000C06030000C060301000C0C0080D87CE483
:10480000BCD84000070F0808070F080000101E0E54
:104810000000000000000000000000000000F0F8B0
:104820000C040000000003070C0800000000040C4A
:10483000F8F000000000080C0703000080A0E0C0B2
:10484000C0E0A0800002030101030200008080E0BC
:10485000E080800000000003030000000000000072
:10486000000000000000101E0E000000808080800C
:1048700080808000000000000000000000000000B8
:10488000000000000000000C0C0000000000008090
:10489000C06030000C06030100000000F8FC04C4F6
:1048A00024FCF800070F0908080F0700001018FC87
:1048B000FC0000000008080F0F080800080C84C462
:1048C000643C18000E0F0908080C0C00080C444446
:1048D00044FCB800040C0808080F0700C0E0B098BA
:1048E000FCFC8000000000080F0F08007C7C4444A2
:1048F000C4C48400040C0808080F0700F0F84C44F6
:1049000044C08000070F0808080F07000C0C04843F
:10491000C47C3C0000000F0F00000000B8FC4444C1
:1049200044FCB800070F0808080F0700387C44440F
:1049300044FCF800000808080C07030000000030E1
:1049400030000000000000060600000000000030FB
:10495000300000000000080E060000000080C0606B
:104960003018080000000103060C080040404040D9
:104970004040400002020202020202000008183019
:1049800060C0800000080C0603010000181C04C46D
:10499000E43C18000000000D0D000000F0F808C80D
:1049A000C8F8F000070F080B0B0B0100E0F0988C23
:1049B00098F0E0000F0F0000000F0F0004FCFC4413
:1049C00044FCB800080F0F08080F0700F0F80C04AB
:1049D000040C180003070C08080C060004FCFC0477
:1049E0000CF8F000080F0F080C07030004FCFC444F
:1049F000E40C1C00080F0F08080C0E0004FCFC441B
:104A0000E40C1C00080F0F0800000000F0F80C84F4
:104A1000848C980003070C0808070F00FCFC40403A
:104A200040FCFC000F0F0000000F0F00000004FC12
:104A3000FC0400000000080F0F0800000000000444
:104A4000FCFC0400070F08080F07000004FCFCC072
:104A5000F03C0C00080F0F00010F0E0004FCFC04DA
:104A600000000000080F0F08080C0E00FCFC387056
:104A700038FCFC000F0F0000000F0F00FCFC38702A
:104A8000E0FCFC000F0F0000000F0F00F0F80C041A
:104A90000CF8F00003070C080C07030004FCFC44AE
:104AA000447C3800080F0F0800000000F8FC0404E4
:104AB00004FCF800070F080E3C3F270004FCFC44F0
:104AC000C4FC3800080F0F00000F0F00183C6444AE
:104AD000C49C1800060E0808080F0700001C0CFCF8
:104AE000FC0C1C000000080F0F080000FCFC00007C
:104AF00000FCFC00070F0808080F0700FCFC000082
:104B000000FCFC000103060C06030100FCFC008015
:104B100000FCFC00030F0E030E0F03000C3CF0C062
:104B2000F03C0C000C0F0300030F0C00003C7CC099
:104B3000C07C3C000000080F0F0800001C0C84C45F
:104B4000643C1C000E0F0908080C0E000000FCFC61
:104B50000404000000000F0F080800003870E0C0D7
:104B6000800000000000000103070E0000000404A4
:104B7000FCFC0000000008080F0F0000080C0603F2
:104B8000060C08000000000000000000000000000B
:104B9000000000002020202020202020000003070B
:104BA00004000000000000000000000000A0A0A021
:104BB000E0C00000070F0808070F080004FCFC20F5
:104BC00060C08000080F0708080F0700C0E0202021
:104BD00020604000070F0808080C040080C0602413
:104BE000FCFC0000070F0808070F0800C0E0A0A0A9
:104BF000A0E0C000070F0808080C040040F8FC44BF
:104C00000C180000080F0F0800000000C0E0202072
:104C1000C0E02000276F48487F3F000004FCFC40B4
:104C200020E0C000080F0F00000F0F00000020EC74
:104C3000EC0000000000080F0F080000000000005A
:104C400020ECEC0000307040407F3F0004FCFC8012
:104C5000C0602000080F0F01030E0C00000004FCD0
:104C6000FC0000000000080F0F080000E0E060C03A
:104C700060E0C0000F0F000F000F0F0020E0C02009
:104C800020E0C000000F0F00000F0F00C0E0202048
:104C900020E0C000070F0808080F070020E0C02030
:104CA00020E0C000407F7F48080F0700C0E02020C0
:104CB000C0E02000070F08487F7F400020E0C06070
:104CC0002060C000080F0F080000000040E0A02096
:104CD00020604000040C09090B0E04002020F8FCA1
:104CE000202000000000070F080C0400E0E0000096
:104CF000E0E00000070F0808070F080000E0E000F0
:104D000000E0E0000003070C0C070300E0E00000F7
:104D100000E0E000070F0C070C0F07002060C080C8
:104D2000C0602000080C0703070C0800E0E000004A
:104D300000E0E000474F4848683F1F00606020A047
:104D4000E06020000C0E0B09080C0C00004040F83D
:104D5000BC040400000000070F080800000000BCAD
:104D6000BC0000000000000F0F000000000404BCA5
:104D7000F84040000008080F07000000080C040C71
:104D8000080C0400000000000000000080C060303B
:104D900060C0800007070404040707001022640CA9
:104DA0008008494A4CF84C4A490800000404FE01B6
:104DB0000404040404FF0404040604001010D0FFDB
:104DC00050902040FF00FF4020300000040300FF0F
:104DD0008044221907003F414640700000F84848CF
:104DE0004848FF48484848FC080000000007020205
:104DF00002023F424242424740700000808082826D
:104E0000828282E2A2928A8680C080000000000036
:104E10000040807F00000000000000000000000053
:104E20000000000000000000000000000000000082
:104E30000000000000000000000000000000000072
:104E40000000000000000000000000000000000062
:104E50000000000000000000000000000000000052
:104E60000000000000000000000000000000000042
:104E70000000000000000000000000000000000032
:104E80000000000000000000000000000000000022
:104E90000000000000000000000000000000000012
:104EA0000000000000000000000000000000000002
:104EB0000000000000F8FC1C3830381CFCF800F83A
:104EC000F800F8F8000000F8FC8C8C8C0080D050C2
:104ED000F0E000F0F0203000008080008080008052
:104EE0008000000C1224120C0000000000000000E2
:104EF00080000000000000001824448844241800AA
:104F000000000000000000000000000000000000A1
:104F10000000000000000000000000000000000091
:104F20000000000000000000000000000000000081
:104F3000000000000003838000808000030300085D
:104F40000B0B0F0780408040830303030000030323
:104F5000030300038380808080C3C3C0C3C3C0C376
:104F6000C3C0C0C0C0C0808080C0C040201804033F
:104F700000000000002050A05020000000000000B1
:104F80000000000000000000000000000000000021
:104F90000000000000000000000000000000000011
:104FA0000000000000000000000000000000000001
:104FB00000000000000304081108040300000000C2
:104FC00000000000010284C2E160301078ECFCF6C1
:104FD0003A1B0585971312131311111111111101A9
:104FE00081FFF9F9F2C2822225058D8B93B3E6C6C3
:104FF0008C1C18387070E0C08000000000000018A1
:1050000024482418000000000000000000000000F8
:105010000000000000000000000000000000000090
:105020000000000000000000000000000000000080
:1050300000000000000080E0E0703018181C1C1C0C
:105040000C1C1616160627636DAECE0E0E0F0F0F34
:105050000E06060707060606060606060606066686
:10506000776767E7070707060606070787C7672307
:10507000231210000808090B0F0E0E0C3C70F0C034
:1050800080000000000000000000000000000000A0
:105090000000000000000000000000000000000010
:1050A0000000000000000000000000000000000000
:1050B0000000F0F8DEFFF63611E0F0F8FCFEDE1E30
:1050C0003F3F1EFEFEFCF8F2E4080107FC00000072
:1050D00000000000000000000000000000000000D0
:1050E000000000FF00000000003CFFE7311CE6FF6D
:1050F000FFFFFEFE1F3F3F1FFFFEFEFCF8F8F031F2
:10510000FBFFFEFC38000000000000000000000073
:10511000000000000000000000000000000000008F
:10512000000000000000000000000000000000007F
:1051300000000003074F4C60607F7F7F7F7D4D4400
:10514000727240797D7F7F7F7F7C70707373707027
:105150007474747474747474747474747676767607
:10516000767676737070727272737070707C7F7FF7
:105170007F7F7D7D62727260687D7F7F7F7F7774C5
:1051800067676300000000000000000000000000EE
:10519000000000000000000000000000000000000F
:1051A00000000000000000000000000000000000FF
:1051B00000000000000000000000000000000000EF
:1051C00000000000000000000000000000000000DF
:1051D00000000000000000000000000000000000CF
:1051E00000000000000000000000000000000000BF
:1051F00000000000000000000000000000000000AF
:10520000000000000000000000000000000000009E
:105210000000000000000000000000000400000882
:10522000000000000000000200010000100000006B
:1052300000000000000000003031323334353637D2
:1052400038394142434445464030580030313233CA
:1052500034353637383961626364656640307800CA
:1052600002400000000000A0000000000540000017
:10527000000000C8000000000C4000000000409C3E
:1052800000000000194000000020BCBE000000002B
:1052900034400000BFC91B8E00000004B540000070
:1052A000504BCFD06607E2CF010000006C410000F8
:1052B0003E8251AADFEEA73401000000D94200006F
:1052C000DCB5A0E23A301F97FFFFFFFFB4450000B6
:1052D000FD25A0C8E9A3C14FFFFFFFFFFF3F00006E
:1052E0000000008000000000FF3F00000000008080
:1052F00000000000405400080000002030000000C2
:10530000280100087054000830000020F007000059
:10531000440100081C00000043000000F8FFFFFFEC
:105320000C0000000E0000000F0000002E00000026
:105330001001000043000000F8FFFFFF0040404064
:105340004040404040404141414141404040404058
:105350004040404040404040404040404005020204
:1053600002020202020202020202020202202020C3
:10537000202020202020200202020202020290901F
:10538000909090901010101010101010101010101D
:105390001010101010101010020202020202888871
:1053A000888888880808080808080808080808087D
:1053B0000808080808080808020202024000000065
:1053C00000000000000000000000000000000000DD
:1053D00000000000000000000000000000000000CD
:1053E00000000000000000000000000000000000BD
:1053F00000000000000000000000000000000000AD
:10540000000000000000000000000000000000009C
:10541000000000000000000000000000000000008C
:10542000000000000000000000000000000000007C
:10543000000000000000000000000000000000006C
:1054400000A24A0400000000000000000102030462
:10545000060708090000000001020304010203041A
:10546000060708090204060800000000000000000A
:04000005080000ED02
:00000001FF
